{
  "contractName": "Certification",
  "abi": [
    {
      "constant": true,
      "inputs": [
        {
          "name": "",
          "type": "bytes32"
        }
      ],
      "name": "certificate",
      "outputs": [
        {
          "name": "studentID",
          "type": "int32"
        },
        {
          "name": "studentName",
          "type": "string"
        },
        {
          "name": "orgName",
          "type": "string"
        },
        {
          "name": "courseName",
          "type": "string"
        },
        {
          "name": "expireDate",
          "type": "uint256"
        },
        {
          "name": "issueDate",
          "type": "uint256"
        },
        {
          "name": "certURL",
          "type": "string"
        },
        {
          "name": "certID",
          "type": "bytes32"
        }
      ],
      "payable": false,
      "stateMutability": "view",
      "type": "function"
    },
    {
      "constant": true,
      "inputs": [],
      "name": "_certID",
      "outputs": [
        {
          "name": "",
          "type": "bytes32"
        }
      ],
      "payable": false,
      "stateMutability": "view",
      "type": "function"
    },
    {
      "anonymous": false,
      "inputs": [
        {
          "indexed": false,
          "name": "studentID",
          "type": "int32"
        },
        {
          "indexed": false,
          "name": "studentName",
          "type": "string"
        },
        {
          "indexed": false,
          "name": "orgName",
          "type": "string"
        },
        {
          "indexed": false,
          "name": "courseName",
          "type": "string"
        },
        {
          "indexed": false,
          "name": "expireDate",
          "type": "uint256"
        },
        {
          "indexed": false,
          "name": "issueDate",
          "type": "uint256"
        },
        {
          "indexed": false,
          "name": "certURL",
          "type": "string"
        },
        {
          "indexed": false,
          "name": "certID",
          "type": "bytes32"
        }
      ],
      "name": "CertCreated",
      "type": "event"
    },
    {
      "constant": false,
      "inputs": [
        {
          "name": "_studentID",
          "type": "int32"
        },
        {
          "name": "_studentName",
          "type": "string"
        },
        {
          "name": "_orgName",
          "type": "string"
        },
        {
          "name": "_courseName",
          "type": "string"
        },
        {
          "name": "_expireDate",
          "type": "uint256"
        },
        {
          "name": "_certURL",
          "type": "string"
        }
      ],
      "name": "uploadCert",
      "outputs": [],
      "payable": false,
      "stateMutability": "nonpayable",
      "type": "function"
    },
    {
      "constant": true,
      "inputs": [
        {
          "name": "",
          "type": "bytes32"
        }
      ],
      "name": "certDetails",
      "outputs": [
        {
          "name": "",
          "type": "int32"
        },
        {
          "name": "",
          "type": "string"
        },
        {
          "name": "",
          "type": "string"
        },
        {
          "name": "",
          "type": "string"
        },
        {
          "name": "",
          "type": "uint256"
        },
        {
          "name": "",
          "type": "uint256"
        },
        {
          "name": "",
          "type": "string"
        },
        {
          "name": "",
          "type": "bytes32"
        }
      ],
      "payable": false,
      "stateMutability": "view",
      "type": "function"
    }
  ],
  "bytecode": "0x608060405234801561001057600080fd5b506112f7806100206000396000f3fe608060405260043610610062576000357c0100000000000000000000000000000000000000000000000000000000900463ffffffff1680633fc4b4b414610067578063920bdd561461030b578063ce5a6cbe14610525578063d7df95b114610550575b600080fd5b34801561007357600080fd5b50610309600480360360c081101561008a57600080fd5b81019080803560030b9060200190929190803590602001906401000000008111156100b457600080fd5b8201836020820111156100c657600080fd5b803590602001918460018302840111640100000000831117156100e857600080fd5b91908080601f016020809104026020016040519081016040528093929190818152602001838380828437600081840152601f19601f8201169050808301925050505050505091929192908035906020019064010000000081111561014b57600080fd5b82018360208201111561015d57600080fd5b8035906020019184600183028401116401000000008311171561017f57600080fd5b91908080601f016020809104026020016040519081016040528093929190818152602001838380828437600081840152601f19601f820116905080830192505050505050509192919290803590602001906401000000008111156101e257600080fd5b8201836020820111156101f457600080fd5b8035906020019184600183028401116401000000008311171561021657600080fd5b91908080601f016020809104026020016040519081016040528093929190818152602001838380828437600081840152601f19601f820116905080830192505050505050509192919290803590602001909291908035906020019064010000000081111561028357600080fd5b82018360208201111561029557600080fd5b803590602001918460018302840111640100000000831117156102b757600080fd5b91908080601f016020809104026020016040519081016040528093929190818152602001838380828437600081840152601f19601f82011690508083019250505050505050919291929050505061076a565b005b34801561031757600080fd5b506103446004803603602081101561032e57600080fd5b8101908080359060200190929190505050610b4d565b604051808960030b60030b81526020018060200180602001806020018881526020018781526020018060200186815260200185810385528c818151815260200191508051906020019080838360005b838110156103ae578082015181840152602081019050610393565b50505050905090810190601f1680156103db5780820380516001836020036101000a031916815260200191505b5085810384528b818151815260200191508051906020019080838360005b838110156104145780820151818401526020810190506103f9565b50505050905090810190601f1680156104415780820380516001836020036101000a031916815260200191505b5085810383528a818151815260200191508051906020019080838360005b8381101561047a57808201518184015260208101905061045f565b50505050905090810190601f1680156104a75780820380516001836020036101000a031916815260200191505b50858103825287818151815260200191508051906020019080838360005b838110156104e05780820151818401526020810190506104c5565b50505050905090810190601f16801561050d5780820380516001836020036101000a031916815260200191505b509c5050505050505050505050505060405180910390f35b34801561053157600080fd5b5061053a610e02565b6040518082815260200191505060405180910390f35b34801561055c57600080fd5b506105896004803603602081101561057357600080fd5b8101908080359060200190929190505050610e08565b604051808960030b60030b81526020018060200180602001806020018881526020018781526020018060200186815260200185810385528c818151815260200191508051906020019080838360005b838110156105f35780820151818401526020810190506105d8565b50505050905090810190601f1680156106205780820380516001836020036101000a031916815260200191505b5085810384528b818151815260200191508051906020019080838360005b8381101561065957808201518184015260208101905061063e565b50505050905090810190601f1680156106865780820380516001836020036101000a031916815260200191505b5085810383528a818151815260200191508051906020019080838360005b838110156106bf5780820151818401526020810190506106a4565b50505050905090810190601f1680156106ec5780820380516001836020036101000a031916815260200191505b50858103825287818151815260200191508051906020019080838360005b8381101561072557808201518184015260208101905061070a565b50505050905090810190601f1680156107525780820380516001836020036101000a031916815260200191505b509c5050505050505050505050505060405180910390f35b60008660030b1415151561077d57600080fd5b6000855111151561078d57600080fd5b6000845111151561079d57600080fd5b600083511115156107ad57600080fd5b600082141515156107bd57600080fd5b8542604051602001808360030b60030b7c01000000000000000000000000000000000000000000000000000000000281526004018281526020019250505060405160208183030381529060405280519060200120600081905550610100604051908101604052808760030b8152602001868152602001858152602001848152602001603c80601861016d6107b28803020202028152602001428152602001828152602001600054815250600160008054815260200190815260200160002060008201518160000160006101000a81548163ffffffff021916908360030b63ffffffff16021790555060208201518160010190805190602001906108c19291906111da565b5060408201518160020190805190602001906108de9291906111da565b5060608201518160030190805190602001906108fb9291906111da565b506080820151816004015560a0820151816005015560c082015181600601908051906020019061092c9291906111da565b5060e082015181600701559050507f18235969172f6bc99b010a6122fdfd477e53ecdb788473f5fe11c4abb805f9ea86868686864287600054604051808960030b60030b81526020018060200180602001806020018881526020018781526020018060200186815260200185810385528c818151815260200191508051906020019080838360005b838110156109cf5780820151818401526020810190506109b4565b50505050905090810190601f1680156109fc5780820380516001836020036101000a031916815260200191505b5085810384528b818151815260200191508051906020019080838360005b83811015610a35578082015181840152602081019050610a1a565b50505050905090810190601f168015610a625780820380516001836020036101000a031916815260200191505b5085810383528a818151815260200191508051906020019080838360005b83811015610a9b578082015181840152602081019050610a80565b50505050905090810190601f168015610ac85780820380516001836020036101000a031916815260200191505b50858103825287818151815260200191508051906020019080838360005b83811015610b01578082015181840152602081019050610ae6565b50505050905090810190601f168015610b2e5780820380516001836020036101000a031916815260200191505b509c5050505050505050505050505060405180910390a1505050505050565b60016020528060005260406000206000915090508060000160009054906101000a900460030b90806001018054600181600116156101000203166002900480601f016020809104026020016040519081016040528092919081815260200182805460018160011615610100020316600290048015610c0c5780601f10610be157610100808354040283529160200191610c0c565b820191906000526020600020905b815481529060010190602001808311610bef57829003601f168201915b505050505090806002018054600181600116156101000203166002900480601f016020809104026020016040519081016040528092919081815260200182805460018160011615610100020316600290048015610caa5780601f10610c7f57610100808354040283529160200191610caa565b820191906000526020600020905b815481529060010190602001808311610c8d57829003601f168201915b505050505090806003018054600181600116156101000203166002900480601f016020809104026020016040519081016040528092919081815260200182805460018160011615610100020316600290048015610d485780601f10610d1d57610100808354040283529160200191610d48565b820191906000526020600020905b815481529060010190602001808311610d2b57829003601f168201915b505050505090806004015490806005015490806006018054600181600116156101000203166002900480601f016020809104026020016040519081016040528092919081815260200182805460018160011615610100020316600290048015610df25780601f10610dc757610100808354040283529160200191610df2565b820191906000526020600020905b815481529060010190602001808311610dd557829003601f168201915b5050505050908060070154905088565b60005481565b6000606080606060008060606000806000549050610e2461125a565b6001600083815260200190815260200160002061010060405190810160405290816000820160009054906101000a900460030b60030b60030b8152602001600182018054600181600116156101000203166002900480601f016020809104026020016040519081016040528092919081815260200182805460018160011615610100020316600290048015610efa5780601f10610ecf57610100808354040283529160200191610efa565b820191906000526020600020905b815481529060010190602001808311610edd57829003601f168201915b50505050508152602001600282018054600181600116156101000203166002900480601f016020809104026020016040519081016040528092919081815260200182805460018160011615610100020316600290048015610f9c5780601f10610f7157610100808354040283529160200191610f9c565b820191906000526020600020905b815481529060010190602001808311610f7f57829003601f168201915b50505050508152602001600382018054600181600116156101000203166002900480601f01602080910402602001604051908101604052809291908181526020018280546001816001161561010002031660029004801561103e5780601f106110135761010080835404028352916020019161103e565b820191906000526020600020905b81548152906001019060200180831161102157829003601f168201915b505050505081526020016004820154815260200160058201548152602001600682018054600181600116156101000203166002900480601f0160208091040260200160405190810160405280929190818152602001828054600181600116156101000203166002900480156110f45780601f106110c9576101008083540402835291602001916110f4565b820191906000526020600020905b8154815290600101906020018083116110d757829003601f168201915b5050505050815260200160078201548152505090508060a00151816080015110151515611189576040517f08c379a000000000000000000000000000000000000000000000000000000000815260040180806020018281038252601b8152602001807f4365727469666963617465206e6f206c6f6e6765722076616c6964000000000081525060200191505060405180910390fd5b806000015181602001518260400151836060015184608001518560a001518660c001518760e00151869650859550849450819150995099509950995099509950995099505050919395975091939597565b828054600181600116156101000203166002900490600052602060002090601f016020900481019282601f1061121b57805160ff1916838001178555611249565b82800160010185558215611249579182015b8281111561124857825182559160200191906001019061122d565b5b50905061125691906112a6565b5090565b61010060405190810160405280600060030b8152602001606081526020016060815260200160608152602001600081526020016000815260200160608152602001600080191681525090565b6112c891905b808211156112c45760008160009055506001016112ac565b5090565b9056fea165627a7a72305820a4bf9477dfd1cbd17a8370a0469d7e8b080fbd05de85e562de364c45f04eb2f70029",
  "source": "pragma solidity ^0.5.0;\r\n\r\ncontract Certification {\r\n\r\n  bytes32 public _certID;\r\n\r\n  struct Certificate {\r\n    int32 studentID;\r\n    string studentName;\r\n    string orgName;\r\n    string courseName;\r\n    uint256 expireDate;\r\n    uint256 issueDate;\r\n    string certURL;\r\n    bytes32 certID;\r\n  }\r\n\r\n  event CertCreated(\r\n    int32 studentID,\r\n    string studentName,\r\n    string orgName,\r\n    string courseName,\r\n    uint256 expireDate,\r\n    uint256 issueDate,\r\n    string certURL,\r\n    bytes32 certID\r\n  );\r\n\r\n  mapping(bytes32 => Certificate) public certificate;\r\n  \r\n  function uploadCert(int32 _studentID, string memory _studentName,string memory _orgName,string memory _courseName, uint256 _expireDate,string memory _certURL) public {\r\n    require(_studentID!=0);\r\n    require(bytes(_studentName).length > 0);\r\n    require(bytes(_orgName).length > 0);\r\n    require(bytes(_courseName).length > 0);\r\n    require(_expireDate!=0);\r\n    _certID = bytes32(keccak256(abi.encodePacked(_studentID,now)));\r\n    certificate[_certID]= Certificate(_studentID, _studentName, _orgName,_courseName, (_expireDate-1970)*365*24*60*60,now,_certURL,_certID);   \r\n    emit CertCreated(_studentID, _studentName, _orgName,_courseName, _expireDate,now,_certURL,_certID);\r\n  } \r\n\r\n  function certDetails(bytes32) public view returns(int32,string memory,string memory,string memory,uint256,uint256,string memory,bytes32) {\r\n    bytes32 byte_id = _certID;\r\n    Certificate memory temp = certificate[byte_id];\r\n    require(temp.expireDate >= temp.issueDate, \"Certificate no longer valid\");\r\n    return (temp.studentID,temp.studentName, temp.orgName, temp.courseName, temp.expireDate,temp.issueDate,temp.certURL,temp.certID);\r\n  }\r\n   \r\n}\r\n",
  "sourcePath": "D:/PROJECT/dapp-certification-main/src/contracts/Certification.sol",
  "compiler": {
    "name": "solc",
    "version": "0.5.0+commit.1d4f565a.Emscripten.clang"
  },
  "schemaVersion": "3.2.3",
  "updatedAt": "2022-04-25T08:46:41.765Z",
  "networkType": "ethereum",
  "devdoc": {
    "methods": {}
  },
  "userdoc": {
    "methods": {}
  }
}