{
  "contractName": "Certification",
  "abi": [
    {
      "constant": true,
      "inputs": [],
      "name": "_certID",
      "outputs": [
        {
          "name": "",
          "type": "bytes8"
        }
      ],
      "payable": false,
      "stateMutability": "view",
      "type": "function"
    },
    {
      "constant": true,
      "inputs": [
        {
          "name": "",
          "type": "bytes8"
        }
      ],
      "name": "certificate",
      "outputs": [
        {
          "name": "studentID",
          "type": "int32"
        },
        {
          "name": "studentName",
          "type": "string"
        },
        {
          "name": "orgName",
          "type": "string"
        },
        {
          "name": "courseName",
          "type": "string"
        },
        {
          "name": "expireDate",
          "type": "uint256"
        },
        {
          "name": "issueDate",
          "type": "uint256"
        },
        {
          "name": "certURL",
          "type": "string"
        },
        {
          "name": "certID",
          "type": "bytes8"
        }
      ],
      "payable": false,
      "stateMutability": "view",
      "type": "function"
    },
    {
      "anonymous": false,
      "inputs": [
        {
          "indexed": false,
          "name": "studentID",
          "type": "int32"
        },
        {
          "indexed": false,
          "name": "studentName",
          "type": "string"
        },
        {
          "indexed": false,
          "name": "orgName",
          "type": "string"
        },
        {
          "indexed": false,
          "name": "courseName",
          "type": "string"
        },
        {
          "indexed": false,
          "name": "expireDate",
          "type": "uint256"
        },
        {
          "indexed": false,
          "name": "issueDate",
          "type": "uint256"
        },
        {
          "indexed": false,
          "name": "certURL",
          "type": "string"
        },
        {
          "indexed": false,
          "name": "certID",
          "type": "bytes8"
        }
      ],
      "name": "CertCreated",
      "type": "event"
    },
    {
      "constant": false,
      "inputs": [
        {
          "name": "_studentID",
          "type": "int32"
        },
        {
          "name": "_studentName",
          "type": "string"
        },
        {
          "name": "_orgName",
          "type": "string"
        },
        {
          "name": "_courseName",
          "type": "string"
        },
        {
          "name": "_expireDate",
          "type": "uint256"
        },
        {
          "name": "_certURL",
          "type": "string"
        }
      ],
      "name": "uploadCert",
      "outputs": [],
      "payable": false,
      "stateMutability": "nonpayable",
      "type": "function"
    },
    {
      "constant": true,
      "inputs": [
        {
          "name": "cert_id",
          "type": "bytes8"
        }
      ],
      "name": "certDetails",
      "outputs": [
        {
          "name": "",
          "type": "int32"
        },
        {
          "name": "",
          "type": "string"
        },
        {
          "name": "",
          "type": "string"
        },
        {
          "name": "",
          "type": "string"
        },
        {
          "name": "",
          "type": "uint256"
        },
        {
          "name": "",
          "type": "uint256"
        },
        {
          "name": "",
          "type": "string"
        },
        {
          "name": "",
          "type": "bytes8"
        }
      ],
      "payable": false,
      "stateMutability": "view",
      "type": "function"
    }
  ],
  "bytecode": "0x608060405234801561001057600080fd5b50611619806100206000396000f3fe608060405260043610610062576000357c0100000000000000000000000000000000000000000000000000000000900463ffffffff1680633fc4b4b414610067578063ce5a6cbe1461030b578063e38d6c111461036c578063f2f937da146105d7575b600080fd5b34801561007357600080fd5b50610309600480360360c081101561008a57600080fd5b81019080803560030b9060200190929190803590602001906401000000008111156100b457600080fd5b8201836020820111156100c657600080fd5b803590602001918460018302840111640100000000831117156100e857600080fd5b91908080601f016020809104026020016040519081016040528093929190818152602001838380828437600081840152601f19601f8201169050808301925050505050505091929192908035906020019064010000000081111561014b57600080fd5b82018360208201111561015d57600080fd5b8035906020019184600183028401116401000000008311171561017f57600080fd5b91908080601f016020809104026020016040519081016040528093929190818152602001838380828437600081840152601f19601f820116905080830192505050505050509192919290803590602001906401000000008111156101e257600080fd5b8201836020820111156101f457600080fd5b8035906020019184600183028401116401000000008311171561021657600080fd5b91908080601f016020809104026020016040519081016040528093929190818152602001838380828437600081840152601f19601f820116905080830192505050505050509192919290803590602001909291908035906020019064010000000081111561028357600080fd5b82018360208201111561029557600080fd5b803590602001918460018302840111640100000000831117156102b757600080fd5b91908080601f016020809104026020016040519081016040528093929190818152602001838380828437600081840152601f19601f820116905080830192505050505050509192919290505050610842565b005b34801561031757600080fd5b50610320610d83565b604051808277ffffffffffffffffffffffffffffffffffffffffffffffff191677ffffffffffffffffffffffffffffffffffffffffffffffff1916815260200191505060405180910390f35b34801561037857600080fd5b506103c06004803603602081101561038f57600080fd5b81019080803577ffffffffffffffffffffffffffffffffffffffffffffffff19169060200190929190505050610dad565b604051808960030b60030b8152602001806020018060200180602001888152602001878152602001806020018677ffffffffffffffffffffffffffffffffffffffffffffffff191677ffffffffffffffffffffffffffffffffffffffffffffffff1916815260200185810385528c818151815260200191508051906020019080838360005b83811015610460578082015181840152602081019050610445565b50505050905090810190601f16801561048d5780820380516001836020036101000a031916815260200191505b5085810384528b818151815260200191508051906020019080838360005b838110156104c65780820151818401526020810190506104ab565b50505050905090810190601f1680156104f35780820380516001836020036101000a031916815260200191505b5085810383528a818151815260200191508051906020019080838360005b8381101561052c578082015181840152602081019050610511565b50505050905090810190601f1680156105595780820380516001836020036101000a031916815260200191505b50858103825287818151815260200191508051906020019080838360005b83811015610592578082015181840152602081019050610577565b50505050905090810190601f1680156105bf5780820380516001836020036101000a031916815260200191505b509c5050505050505050505050505060405180910390f35b3480156105e357600080fd5b5061062b600480360360208110156105fa57600080fd5b81019080803577ffffffffffffffffffffffffffffffffffffffffffffffff1916906020019092919050505061120a565b604051808960030b60030b8152602001806020018060200180602001888152602001878152602001806020018677ffffffffffffffffffffffffffffffffffffffffffffffff191677ffffffffffffffffffffffffffffffffffffffffffffffff1916815260200185810385528c818151815260200191508051906020019080838360005b838110156106cb5780820151818401526020810190506106b0565b50505050905090810190601f1680156106f85780820380516001836020036101000a031916815260200191505b5085810384528b818151815260200191508051906020019080838360005b83811015610731578082015181840152602081019050610716565b50505050905090810190601f16801561075e5780820380516001836020036101000a031916815260200191505b5085810383528a818151815260200191508051906020019080838360005b8381101561079757808201518184015260208101905061077c565b50505050905090810190601f1680156107c45780820380516001836020036101000a031916815260200191505b50858103825287818151815260200191508051906020019080838360005b838110156107fd5780820151818401526020810190506107e2565b50505050905090810190601f16801561082a5780820380516001836020036101000a031916815260200191505b509c5050505050505050505050505060405180910390f35b60008660030b1415151561085557600080fd5b6000855111151561086557600080fd5b6000845111151561087557600080fd5b6000835111151561088557600080fd5b6000821415151561089557600080fd5b8542604051602001808360030b60030b7c010000000000000000000000000000000000000000000000000000000002815260040182815260200192505050604051602081830303815290604052805190602001206000806101000a81548167ffffffffffffffff0219169083780100000000000000000000000000000000000000000000000090040217905550610100604051908101604052808760030b8152602001868152602001858152602001848152602001603c80601861016d6107b288030202020281526020014281526020018281526020016000809054906101000a900478010000000000000000000000000000000000000000000000000277ffffffffffffffffffffffffffffffffffffffffffffffff1916815250600160008060009054906101000a900478010000000000000000000000000000000000000000000000000277ffffffffffffffffffffffffffffffffffffffffffffffff191677ffffffffffffffffffffffffffffffffffffffffffffffff1916815260200190815260200160002060008201518160000160006101000a81548163ffffffff021916908360030b63ffffffff1602179055506020820151816001019080519060200190610a669291906114e4565b506040820151816002019080519060200190610a839291906114e4565b506060820151816003019080519060200190610aa09291906114e4565b506080820151816004015560a0820151816005015560c0820151816006019080519060200190610ad19291906114e4565b5060e08201518160070160006101000a81548167ffffffffffffffff02191690837801000000000000000000000000000000000000000000000000900402179055509050507f4454c577389288ff98478065257b6db2366b0f766350c0e90891e8b0d1f2fad4868686868642876000809054906101000a9004780100000000000000000000000000000000000000000000000002604051808960030b60030b8152602001806020018060200180602001888152602001878152602001806020018677ffffffffffffffffffffffffffffffffffffffffffffffff191677ffffffffffffffffffffffffffffffffffffffffffffffff1916815260200185810385528c818151815260200191508051906020019080838360005b83811015610c05578082015181840152602081019050610bea565b50505050905090810190601f168015610c325780820380516001836020036101000a031916815260200191505b5085810384528b818151815260200191508051906020019080838360005b83811015610c6b578082015181840152602081019050610c50565b50505050905090810190601f168015610c985780820380516001836020036101000a031916815260200191505b5085810383528a818151815260200191508051906020019080838360005b83811015610cd1578082015181840152602081019050610cb6565b50505050905090810190601f168015610cfe5780820380516001836020036101000a031916815260200191505b50858103825287818151815260200191508051906020019080838360005b83811015610d37578082015181840152602081019050610d1c565b50505050905090810190601f168015610d645780820380516001836020036101000a031916815260200191505b509c5050505050505050505050505060405180910390a1505050505050565b6000809054906101000a900478010000000000000000000000000000000000000000000000000281565b600060608060606000806060600080899050610dc7611564565b600160008377ffffffffffffffffffffffffffffffffffffffffffffffff191677ffffffffffffffffffffffffffffffffffffffffffffffff1916815260200190815260200160002061010060405190810160405290816000820160009054906101000a900460030b60030b60030b8152602001600182018054600181600116156101000203166002900480601f016020809104026020016040519081016040528092919081815260200182805460018160011615610100020316600290048015610ed35780601f10610ea857610100808354040283529160200191610ed3565b820191906000526020600020905b815481529060010190602001808311610eb657829003601f168201915b50505050508152602001600282018054600181600116156101000203166002900480601f016020809104026020016040519081016040528092919081815260200182805460018160011615610100020316600290048015610f755780601f10610f4a57610100808354040283529160200191610f75565b820191906000526020600020905b815481529060010190602001808311610f5857829003601f168201915b50505050508152602001600382018054600181600116156101000203166002900480601f0160208091040260200160405190810160405280929190818152602001828054600181600116156101000203166002900480156110175780601f10610fec57610100808354040283529160200191611017565b820191906000526020600020905b815481529060010190602001808311610ffa57829003601f168201915b505050505081526020016004820154815260200160058201548152602001600682018054600181600116156101000203166002900480601f0160208091040260200160405190810160405280929190818152602001828054600181600116156101000203166002900480156110cd5780601f106110a2576101008083540402835291602001916110cd565b820191906000526020600020905b8154815290600101906020018083116110b057829003601f168201915b505050505081526020016007820160009054906101000a900478010000000000000000000000000000000000000000000000000277ffffffffffffffffffffffffffffffffffffffffffffffff191677ffffffffffffffffffffffffffffffffffffffffffffffff1916815250509050428160800151101515156111b9576040517f08c379a000000000000000000000000000000000000000000000000000000000815260040180806020018281038252601b8152602001807f4365727469666963617465206e6f206c6f6e6765722076616c6964000000000081525060200191505060405180910390fd5b806000015181602001518260400151836060015184608001518560a001518660c001518760e00151869650859550849450819150995099509950995099509950995099505050919395975091939597565b60016020528060005260406000206000915090508060000160009054906101000a900460030b90806001018054600181600116156101000203166002900480601f0160208091040260200160405190810160405280929190818152602001828054600181600116156101000203166002900480156112c95780601f1061129e576101008083540402835291602001916112c9565b820191906000526020600020905b8154815290600101906020018083116112ac57829003601f168201915b505050505090806002018054600181600116156101000203166002900480601f0160208091040260200160405190810160405280929190818152602001828054600181600116156101000203166002900480156113675780601f1061133c57610100808354040283529160200191611367565b820191906000526020600020905b81548152906001019060200180831161134a57829003601f168201915b505050505090806003018054600181600116156101000203166002900480601f0160208091040260200160405190810160405280929190818152602001828054600181600116156101000203166002900480156114055780601f106113da57610100808354040283529160200191611405565b820191906000526020600020905b8154815290600101906020018083116113e857829003601f168201915b505050505090806004015490806005015490806006018054600181600116156101000203166002900480601f0160208091040260200160405190810160405280929190818152602001828054600181600116156101000203166002900480156114af5780601f10611484576101008083540402835291602001916114af565b820191906000526020600020905b81548152906001019060200180831161149257829003601f168201915b5050505050908060070160009054906101000a9004780100000000000000000000000000000000000000000000000002905088565b828054600181600116156101000203166002900490600052602060002090601f016020900481019282601f1061152557805160ff1916838001178555611553565b82800160010185558215611553579182015b82811115611552578251825591602001919060010190611537565b5b50905061156091906115c8565b5090565b61010060405190810160405280600060030b8152602001606081526020016060815260200160608152602001600081526020016000815260200160608152602001600077ffffffffffffffffffffffffffffffffffffffffffffffff191681525090565b6115ea91905b808211156115e65760008160009055506001016115ce565b5090565b9056fea165627a7a723058204decd67771eea5f2ea1e9e9bb318704b0a4ddf20a11403aad986a55da33bcf270029",
  "source": "pragma solidity ^0.5.0;\n\ncontract Certification {\n\n  bytes8 public _certID;\n\n  struct Certificate {\n    int32 studentID;\n    string studentName;\n    string orgName;\n    string courseName;\n    uint256 expireDate;\n    uint256 issueDate;\n    string certURL;\n    bytes8 certID;\n  }\n\n  event CertCreated(\n    int32 studentID,\n    string studentName,\n    string orgName,\n    string courseName,\n    uint256 expireDate,\n    uint256 issueDate,\n    string certURL,\n    bytes8 certID\n  );\n\n  mapping(bytes8 => Certificate) public certificate;\n  \n  function uploadCert(int32 _studentID, string memory _studentName,string memory _orgName,string memory _courseName, uint256 _expireDate,string memory _certURL) public {\n    require(_studentID!=0);\n    require(bytes(_studentName).length > 0);\n    require(bytes(_orgName).length > 0);\n    require(bytes(_courseName).length > 0);\n    require(_expireDate!=0);\n    _certID = bytes8(keccak256(abi.encodePacked(_studentID,now)));\n    certificate[_certID]= Certificate(_studentID, _studentName, _orgName,_courseName, (_expireDate-1970)*365*24*60*60,now,_certURL,_certID);   \n    emit CertCreated(_studentID, _studentName, _orgName,_courseName, _expireDate,now,_certURL,_certID);\n  } \n\n  function certDetails(bytes8 cert_id) public view returns(int32,string memory,string memory,string memory,uint256,uint256,string memory,bytes8) {\n    bytes8 byte_id = cert_id;\n    Certificate memory temp = certificate[byte_id];\n    require(temp.expireDate >= now, \"Certificate no longer valid\");\n    return (temp.studentID,temp.studentName, temp.orgName, temp.courseName, temp.expireDate,temp.issueDate,temp.certURL,temp.certID);\n  }\n\n  \n   \n}",
  "sourcePath": "/home/nikhil/pro3/blockchain-react/src/contracts/Certification.sol",
  "compiler": {
    "name": "solc",
    "version": "0.5.0+commit.1d4f565a.Emscripten.clang"
  },
  "schemaVersion": "3.2.3",
  "updatedAt": "2022-05-21T16:14:32.739Z",
  "networkType": "ethereum",
  "devdoc": {
    "methods": {}
  },
  "userdoc": {
    "methods": {}
  }
}